:100000000C942D000C9428020C9428020C942802C5
:100010000C9428020C9428020C9428020C942802B8
:100020000C9428020C9428020C9428020C942802A8
:100030000C9428020C9428020C9428020C94280298
:100040000C94C0000C9428020C9428020C942802F2
:100050000C94280200600062800011241FBECFE5CE
:10006000D8E0DEBFCDBFE4E5F0E040E017C0B591D9
:10007000A59135912591059107FD0CC0959185912C
:10008000EF01F92FE82F05900D92A217B307D9F7CA
:10009000FE0104C01D92A217B307E1F7E935F4078A
:0E00A00031F70E94A7010C945500F894FFCF91
:1000AE000E940D0238F00E94140220F0952311F0E8
:1000BE000C941B020C94250211240C9407020E942E
:1000CE006F0170F3959FC1F3950F50E0551F629F1E
:1000DE00F001729FBB27F00DB11D639FAA27F00D93
:1000EE00B11DAA1F649F6627B00DA11D661F829FBA
:1000FE002227B00DA11D621F739FB00DA11D621F9F
:10010E00839FA00D611D221F749F3327A00D611DBB
:10011E00231F849F600D211D822F762F6A2F11249D
:10012E009F5750409AF0F1F088234AF0EE0FFF1FD0
:10013E00BB1F661F771F881F91505040A9F79E3F27
:10014E00510580F00C941B020C9407025F3FE4F300
:10015E00983ED4F3869577956795B795F795E7957D
:10016E009F5FC1F7FE2B880F911D9695879597F986
:02017E000895E2
:100180001F920F920FB60F9211242F933F934F930C
:100190005F936F937F938F939F93AF93BF93EF93EF
:1001A000FF9380E690E00E94F501609160007091FD
:1001B0006100072E000C880B990B0E9405012DECA5
:1001C0003CEC4CE950E40E9421020E94FF01CB016B
:1001D0006AE070E00E94BC0170936100609360006F
:1001E0000E942A02FF91EF91BF91AF919F918F9151
:1001F0007F916F915F914F913F912F910F900FBE23
:060200000F901F901895FD
:10020600E89409C097FB3EF49095809570956195AA
:100216007F4F8F4F9F4F9923A9F0F92F96E9BB2760
:100226009395F695879577956795B795F111F8CFDC
:10023600FAF4BB0F11F460FF1BC06F5F7F4F8F4F47
:100246009F4F16C0882311F096E911C0772321F03D
:100256009EE8872F762F05C0662371F096E8862FD5
:1002660070E060E02AF09A95660F771F881FDAF72C
:0A027600880F9695879597F9089573
:100280000E94770188F09F5798F0B92F9927B751AE
:10029000B0F0E1F0660F771F881F991F1AF0BA952A
:1002A000C9F714C0B13091F00E940602B1E0089580
:1002B0000C940602672F782F8827B85F39F0B93F72
:1002C000CCF3869577956795B395D9F73EF49095DD
:0E02D0008095709561957F4F8F4F9F4F0895D9
:1002DE0057FD9058440F551F59F05F3F71F04795E9
:1002EE00880F97FB991F61F09F3F79F087950895CE
:1002FE00121613061406551FF2CF4695F1DF08C0ED
:10030E00161617061806991FF1CF86957105610509
:04031E0008940895A2
:100322000F931F9390E4699FB0011124862B87B924
:1003320080E2089F800111244068042B220F220FC3
:0C034200220F022B06B91F910F910895A5
:10034E0000E021E047E060E080E00E9491017894B7
:10035E000E942A028FEF84BB81BBE0E6F0E0808131
:0A036E0085BB8091610082BBFACFCD
:1003780097FB072E16F4009407D077FD09D00E944A
:10038800D00107FC05D03EF4909581959F4F0895C4
:08039800709561957F4F0895F7
:1003A000AA1BBB1B51E107C0AA1FBB1FA617B7079B
:1003B00010F0A61BB70B881F991F5A95A9F78095B7
:0803C0009095BC01CD010895E8
:1003C800092E0394000C11F4882352F0BB0F40F45B
:1003D800BF2B11F460FF04C06F5F7F4F8F4F9F4F9B
:0203E800089576
:1003EA0024B130E0FC013183208345B1342B3183C1
:0403FA0020830895BF
:0E03FE000E9440016894B1110C94070208950A
:0E040C00E894BB2766277727CB0197F9089560
:0E041A0000240A9416161706180609060895FF
:0E04280000240A941216130614060506089501
:0C04360097F99F6780E870E060E008958F
:080442000E9466000C94E40125
:06044A009FEF80EC089515
:040450000C94000008
:04045400369A089537
:00000001FF
